{
  "_format": "hh-sol-artifact-1",
  "contractName": "Transactions",
  "sourceName": "contracts/Transactions.sol",
  "abi": [
    {
      "anonymous": false,
      "inputs": [
        {
          "indexed": false,
          "internalType": "address",
          "name": "from",
          "type": "address"
        },
        {
          "indexed": false,
          "internalType": "address",
          "name": "receiver",
          "type": "address"
        },
        {
          "indexed": false,
          "internalType": "uint256",
          "name": "amount",
          "type": "uint256"
        },
        {
          "indexed": false,
          "internalType": "string",
          "name": "message",
          "type": "string"
        },
        {
          "indexed": false,
          "internalType": "uint256",
          "name": "timestamp",
          "type": "uint256"
        },
        {
          "indexed": false,
          "internalType": "string",
          "name": "account",
          "type": "string"
        },
        {
          "indexed": false,
          "internalType": "string",
          "name": "keyword",
          "type": "string"
        }
      ],
      "name": "Transfer",
      "type": "event"
    },
    {
      "inputs": [],
      "name": "getAllTransactions",
      "outputs": [
        {
          "components": [
            {
              "internalType": "address",
              "name": "sender",
              "type": "address"
            },
            {
              "internalType": "address",
              "name": "receiver",
              "type": "address"
            },
            {
              "internalType": "uint256",
              "name": "amount",
              "type": "uint256"
            },
            {
              "internalType": "string",
              "name": "message",
              "type": "string"
            },
            {
              "internalType": "uint256",
              "name": "timestamp",
              "type": "uint256"
            },
            {
              "internalType": "string",
              "name": "account",
              "type": "string"
            },
            {
              "internalType": "string",
              "name": "keyword",
              "type": "string"
            }
          ],
          "internalType": "struct Transactions.TransferStruct[]",
          "name": "",
          "type": "tuple[]"
        }
      ],
      "stateMutability": "view",
      "type": "function"
    },
    {
      "inputs": [],
      "name": "getTransactionCount",
      "outputs": [
        {
          "internalType": "uint256",
          "name": "",
          "type": "uint256"
        }
      ],
      "stateMutability": "view",
      "type": "function"
    },
    {
      "inputs": [
        {
          "internalType": "address payable",
          "name": "receiver",
          "type": "address"
        },
        {
          "internalType": "uint256",
          "name": "amount",
          "type": "uint256"
        },
        {
          "internalType": "string",
          "name": "message",
          "type": "string"
        },
        {
          "internalType": "string",
          "name": "account",
          "type": "string"
        },
        {
          "internalType": "string",
          "name": "keyword",
          "type": "string"
        }
      ],
      "name": "transfer",
      "outputs": [],
      "stateMutability": "nonpayable",
      "type": "function"
    }
  ],
  "bytecode": "0x608060405234801561001057600080fd5b50610d67806100206000396000f3fe608060405234801561001057600080fd5b50600436106100415760003560e01c806327506f53146100465780632e7700f014610064578063754091e714610082575b600080fd5b61004e61009e565b60405161005b9190610a13565b60405180910390f35b61006c610373565b6040516100799190610a35565b60405180910390f35b61009c600480360381019061009791906106e0565b61037c565b005b60606001805480602002602001604051908101604052809291908181526020016000905b8282101561036a57838290600052602060002090600702016040518060e00160405290816000820160009054906101000a900473ffffffffffffffffffffffffffffffffffffffff1673ffffffffffffffffffffffffffffffffffffffff1673ffffffffffffffffffffffffffffffffffffffff1681526020016001820160009054906101000a900473ffffffffffffffffffffffffffffffffffffffff1673ffffffffffffffffffffffffffffffffffffffff1673ffffffffffffffffffffffffffffffffffffffff168152602001600282015481526020016003820180546101ab90610c33565b80601f01602080910402602001604051908101604052809291908181526020018280546101d790610c33565b80156102245780601f106101f957610100808354040283529160200191610224565b820191906000526020600020905b81548152906001019060200180831161020757829003601f168201915b505050505081526020016004820154815260200160058201805461024790610c33565b80601f016020809104026020016040519081016040528092919081815260200182805461027390610c33565b80156102c05780601f10610295576101008083540402835291602001916102c0565b820191906000526020600020905b8154815290600101906020018083116102a357829003601f168201915b505050505081526020016006820180546102d990610c33565b80601f016020809104026020016040519081016040528092919081815260200182805461030590610c33565b80156103525780601f1061032757610100808354040283529160200191610352565b820191906000526020600020905b81548152906001019060200180831161033557829003601f168201915b505050505081525050815260200190600101906100c2565b50505050905090565b60008054905090565b600160008082825461038e9190610b17565b9250508190555060016040518060e001604052803373ffffffffffffffffffffffffffffffffffffffff1681526020018773ffffffffffffffffffffffffffffffffffffffff16815260200186815260200185815260200142815260200184815260200183815250908060018154018082558091505060019003906000526020600020906007020160009091909190915060008201518160000160006101000a81548173ffffffffffffffffffffffffffffffffffffffff021916908373ffffffffffffffffffffffffffffffffffffffff16021790555060208201518160010160006101000a81548173ffffffffffffffffffffffffffffffffffffffff021916908373ffffffffffffffffffffffffffffffffffffffff1602179055506040820151816002015560608201518160030190805190602001906104d39291906105ab565b506080820151816004015560a08201518160050190805190602001906104fa9291906105ab565b5060c08201518160060190805190602001906105179291906105ab565b5050507f21ec5b3f3e6c597e1a0d1650e5545618667a89bf7d7341cc53e38673d3dede3233868686428787604051610555979695949392919061098f565b60405180910390a18473ffffffffffffffffffffffffffffffffffffffff166108fc859081150290604051600060405180830381858888f193505050501580156105a3573d6000803e3d6000fd5b505050505050565b8280546105b790610c33565b90600052602060002090601f0160209004810192826105d95760008555610620565b82601f106105f257805160ff1916838001178555610620565b82800160010185558215610620579182015b8281111561061f578251825591602001919060010190610604565b5b50905061062d9190610631565b5090565b5b8082111561064a576000816000905550600101610632565b5090565b600061066161065c84610a81565b610a50565b90508281526020810184848401111561067957600080fd5b610684848285610bf1565b509392505050565b60008135905061069b81610d03565b92915050565b600082601f8301126106b257600080fd5b81356106c284826020860161064e565b91505092915050565b6000813590506106da81610d1a565b92915050565b600080600080600060a086880312156106f857600080fd5b60006107068882890161068c565b9550506020610717888289016106cb565b945050604086013567ffffffffffffffff81111561073457600080fd5b610740888289016106a1565b935050606086013567ffffffffffffffff81111561075d57600080fd5b610769888289016106a1565b925050608086013567ffffffffffffffff81111561078657600080fd5b610792888289016106a1565b9150509295509295909350565b60006107ab83836108c7565b905092915050565b6107bc81610bbb565b82525050565b6107cb81610b6d565b82525050565b6107da81610b6d565b82525050565b60006107eb82610ac1565b6107f58185610ae4565b93508360208202850161080785610ab1565b8060005b858110156108435784840389528151610824858261079f565b945061082f83610ad7565b925060208a0199505060018101905061080b565b50829750879550505050505092915050565b600061086082610acc565b61086a8185610af5565b935061087a818560208601610c00565b61088381610cf2565b840191505092915050565b600061089982610acc565b6108a38185610b06565b93506108b3818560208601610c00565b6108bc81610cf2565b840191505092915050565b600060e0830160008301516108df60008601826107c2565b5060208301516108f260208601826107c2565b5060408301516109056040860182610971565b506060830151848203606086015261091d8282610855565b91505060808301516109326080860182610971565b5060a083015184820360a086015261094a8282610855565b91505060c083015184820360c08601526109648282610855565b9150508091505092915050565b61097a81610bb1565b82525050565b61098981610bb1565b82525050565b600060e0820190506109a4600083018a6107d1565b6109b160208301896107b3565b6109be6040830188610980565b81810360608301526109d0818761088e565b90506109df6080830186610980565b81810360a08301526109f1818561088e565b905081810360c0830152610a05818461088e565b905098975050505050505050565b60006020820190508181036000830152610a2d81846107e0565b905092915050565b6000602082019050610a4a6000830184610980565b92915050565b6000604051905081810181811067ffffffffffffffff82111715610a7757610a76610cc3565b5b8060405250919050565b600067ffffffffffffffff821115610a9c57610a9b610cc3565b5b601f19601f8301169050602081019050919050565b6000819050602082019050919050565b600081519050919050565b600081519050919050565b6000602082019050919050565b600082825260208201905092915050565b600082825260208201905092915050565b600082825260208201905092915050565b6000610b2282610bb1565b9150610b2d83610bb1565b9250827fffffffffffffffffffffffffffffffffffffffffffffffffffffffffffffffff03821115610b6257610b61610c65565b5b828201905092915050565b6000610b7882610b91565b9050919050565b6000610b8a82610b91565b9050919050565b600073ffffffffffffffffffffffffffffffffffffffff82169050919050565b6000819050919050565b6000610bc682610bcd565b9050919050565b6000610bd882610bdf565b9050919050565b6000610bea82610b91565b9050919050565b82818337600083830152505050565b60005b83811015610c1e578082015181840152602081019050610c03565b83811115610c2d576000848401525b50505050565b60006002820490506001821680610c4b57607f821691505b60208210811415610c5f57610c5e610c94565b5b50919050565b7f4e487b7100000000000000000000000000000000000000000000000000000000600052601160045260246000fd5b7f4e487b7100000000000000000000000000000000000000000000000000000000600052602260045260246000fd5b7f4e487b7100000000000000000000000000000000000000000000000000000000600052604160045260246000fd5b6000601f19601f8301169050919050565b610d0c81610b7f565b8114610d1757600080fd5b50565b610d2381610bb1565b8114610d2e57600080fd5b5056fea264697066735822122005cf8090ff7fa6984b762be090b3ca734ee051b97eb7cc69029eed8ef1cbf55264736f6c63430008000033",
  "linkReferences": {},
  "deployedLinkReferences": {}
}